:100000001AC034C033C032C031C030C02FC02EC07F
:1000100092C12CC02BC09EC129C05DC227C026C082
:1000200025C024C023C04C540052540053540052E5
:1000300056004657000011241FBECFE5D4E0DEBFB6
:10004000CDBF10E0A0E6B0E0EAE0F6E002C0059027
:100050000D92AC38B107D9F721E0ACE8B0E001C0AF
:100060001D92A83FB207E1F7A4D2CDC2C9CFCF936A
:10007000DF93FC01228133812115310539F02150B4
:10008000310933832283232B09F0A8C0EC01888136
:10009000823009F499C038F4882309F469C08130AA
:1000A00009F471C09BC0843009F478C008F481C0A1
:1000B000853009F093C040E050E062E070E082E3F8
:1000C00090E0ADD1892B59F08ED198B381E089278A
:1000D00088BB188289EB90E09B838A837FC040E0D5
:1000E00050E062E070E08FE290E099D1892B41F01E
:1000F0007AD181E0888389EB90E09B838A836EC00C
:1001000040E050E062E070E08CE290E088D1892B22
:1001100041F069D184E0888389EB90E09B838A83F6
:100120005DC040E050E062E070E089E290E077D1AD
:10013000892B41F058D183E0888389EB90E09B8341
:100140008A834CC040E050E062E070E086E290E0DC
:1001500066D1892B41F047D182E0888389EB90E01A
:100160009B838A833BC081E090E09B838A8336C077
:1001700080E690E0F3D14FD085E0888389EB90E072
:100180009B838A832BC086E690E0E8D14BD085E044
:10019000888389EB90E09B838A8320C08CE690E083
:1001A000DDD130D085E0888389EB90E09B838A8322
:1001B00015C082E790E0D2D13CD085E0888389EBFE
:1001C00090E09B838A830AC088E790E0C7D136D04D
:1001D00085E0888389EB90E09B838A83DF91CF91D0
:1001E000089587E990E043CF089580E895E2C4D16F
:1001F00085E0809397004AE050E061EF70E081E095
:1002000043C0089582B38F7082BB089581B3806F1D
:1002100081BBF8CF089582B3806582BB82B38F75AE
:1002200082BB089582B3806A82BB82B38F7A82BB1D
:100230000895949A82B38F7182BB0895969A82B37F
:100240008F7482BB0895EBE9F0E02BEE30E082E0A2
:100250001082128211821482138216821582878381
:100260003896E217F307A1F783E08FBD8BE18EBDCF
:100270008AEF90E09BBD8ABD88B7846088BF89B74C
:10028000846089BF78940895A2EAB0E020E030E06D
:10029000F9019C91923089F4EE0FFF1FEE0FFF1FC2
:1002A000EE0FFF1FE556FF4F8083728361835483F7
:1002B000438356834583178208952F5F3F4F1896D7
:1002C0002A30310529F70895DF92EF92FF920F93BC
:1002D0001F93CF93DF9380918C00882321F110929C
:1002E0008C00CCE9D0E00F2EFCEEEF2EF0E0FF2EDC
:1002F000F02DDD24D3948E81811111C08A819B81E0
:10030000009751F4DE82E881F98109958C819D8105
:100310009B838A831E8203C001979B838A832896CE
:10032000CE15DF0541F7DF91CF911F910F91FF901F
:10033000EF90DF9008951F920F920FB60F92112445
:100340008F9381E080938C008F910F900FBE0F9060
:100350001F9018951F920F920FB60F9211242F9392
:100360004F935F938F939F93EF93FF938BB12CB138
:100370008C7169F58091950090919600AC014F5F6A
:100380005F4F5093960040939500FC01E451FF4F5E
:10039000208380919500909196008430914021F4C3
:1003A0001092960010929500809191009091920089
:1003B000019690939200809391008430914039F49B
:1003C000109292001092910081E08093EB00FF91D7
:1003D000EF919F918F915F914F912F910F900FBE51
:1003E0000F901F901895F894109296001092950017
:1003F000109294001092930010929200109291002B
:100400001092EB00789480E090E0FC01E451FF4F03
:1004100010820196843021E09207B9F708950F9376
:100420001F93CF93DF9320919100309192008B0125
:100430002617370708F442C0161617060CF041C0FD
:10044000642F752FEC01FC01949120919100309163
:10045000920062177307C0F5FB01E451FF4F8081E2
:10046000891320C0FB01E451FF4F9081891312C012
:1004700020E030E02F5F3F4FFE01E20FF31FE491D9
:10048000C901860F971FDC01A451BF4F4C914E1735
:1004900089F303C0CB0120E030E002171307B1F06D
:1004A000FE0194916F5F7F4F2091910030919200F7
:1004B0006217730788F280E090E008C080E090E067
:1004C00005C080E090E002C080E090E0DF91CF9135
:1004D0001F910F9108951F920F920FB60F92112442
:1004E0002F933F938F939F93EF93FF9380918D0072
:1004F00090918E00892B19F180918D0090918E0042
:10050000019790938E0080938D0080918F00909141
:1005100090009C012F5F3F4F3093900020938F00FD
:10052000FC01E051FE4F80818CB980918F00909149
:100530009000089721F41092900010928F00FF9184
:10054000EF919F918F913F912F910F900FBE0F9040
:100550001F9018955D9BFECF8CB90895CF93DF93C4
:10056000EC018881882329F02196F4DF899181119B
:10057000FCCFDF91CF9108959C0140E050E060E412
:1005800072E48FE090E01DD0DA01C9010197A10962
:10059000B109892F9A2FAB2FBB2780BD215029B9D4
:1005A0008AB188618AB980B5866880BD579A789487
:1005B00008952CDE48DE19DE8EE790E0CFDF84DE82
:1005C000FECFA1E21A2EAA1BBB1BFD010DC0AA1F64
:1005D000BB1FEE1FFF1FA217B307E407F50720F0AC
:1005E000A21BB30BE40BF50B661F771F881F991F27
:1005F0001A9469F760957095809590959B01AC0170
:0A060000BD01CF010895F894FFCF6B
:10060A0062745F66770062745F52560062745F5369
:10061A00540062745F52540062745F4C460048652D
:0C062A006C6C6F20576F726C640D0A003E
:00000001FF
